:040000000C94460016
:14008C00CFEFD0E1CDBFDEBFCE51D0400AEA08830024E0E036
:1400A000F1E011E0E030F10711F00192FBCF0083ECE8F0E0FD
:1400B400A0E0B1E010E000E00BBFEC38F10721F0C89531963C
:1400C8000D92F9CF0E947D00FFCF8FEF8ABB08950027112711
:1400DC00222733272F5F3F4F2436E0E03E07D4F30F5F1F4F4F
:1400F000083EE3E01E0794F30895EBDF06C08EEF8BBBEADF8E
:0A0104008FEF8BBBE7DFF9CF089502
:00000001FF
